S01100006C636473637265656E2E7372656360
S11300000C9434000C9451000C9451000C94510045
S11300100C9451000C9451000C9451000C94510018
S11300200C9451000C9430040C9451000C948100F5
S11300300C9451000C9451000C9451000C945100F8
S11300400C9419030C9451000C9451000C9451001D
S11300500C9451000C9451000C9451000C945100D8
S11300600C9451000C94510011241FBECFEFD8E022
S1130070DEBFCDBF11E0A0E0B1E0E6E5FCE002C0E8
S113008005900D92AC38B107D9F722E0ACE8B1E0A5
S113009001C01D92A733B207E1F70E94F1020C944C
S11300A029060C940000EFE6F0E080818D7F8083C8
S11300B00895219AE0E8F0E0808188608083E1E897
S11300C0F0E08081896080830E94530008959B0141
S11300D0AC0160E070E080E89FE30E94540420E0FB
S11300E034E244E75BE40E948A050E94C6047093EC
S11300F0890060938800EFE6F0E08081826080836D
S113010008951F920F920FB60F9211248F939F930D
S113011095B182E0892785B99F918F910F900FBE89
S11301200F901F90189560E070E08CED93E40E94AE
S113013067002FEF83EC99E0215080409040E1F775
S113014000C0000067EF74E189EE93E40E94670049
S11301502FEF83EC99E0215080409040E1F700C0FC
S1130160000060E171EF86EF93E40E9467002FEFD7
S113017083EC99E0215080409040E1F700C00000FA
S113018062E170ED82E094E40E9467002FEF87E85B
S113019093E1215080409040E1F700C000000E94AC
S11301A053000895599A0000000059980895CF9378
S11301B0C82F807F8BB98BB1837F8BB90E94D2000B
S11301C087EC90E00197F1F700C00000C295C07F72
S11301D0CBB98BB1837F8BB90E94D200CF910895A4
S11301E08FEF8AB92FEF86E791E02150804090404D
S11301F0E1F700C0000088E20E94D7002FEF89EFEA
S113020090E0215080409040E1F700C0000084E07D
S11302100E94D7002FEF89EF90E02150804090405A
S1130220E1F700C000008FE00E94D7008FE19EE458
S11302300197F1F700C0000081E00E94D7009FEF12
S113024029EF80E0915020408040E1F700C0000099
S11302500895CF93C82F87EC90E00197F1F700C081
S113026000008C2F807F8BB98BB1837F8BB90E9468
S1130270D20087EC90E00197F1F700C00000C2952E
S1130280C07FCBB98BB1837F8BB90E94D200CF9151
S11302900895CF93C82F87EC90E00197F1F700C041
S11302A000008C2F807F8BB95A985B9A0E94D200F1
S11302B087EC90E00197F1F700C00000C295C07F81
S11302C0CBB95A985B9A0E94D200CF910895CF93EC
S11302D0DF93EC018881882331F021960E94490143
S11302E089918111FBCFDF91CF910895623078F429
S11302F0803168F4613011F4806C01C080680E9420
S113030029018FE59AEE0197F1F700C000000895E6
S11303101092920180918E0181501AF080938E0187
S113032003C08FE080938E0180918E01805C806495
S11303300E94290108951092920180918E018F5F8D
S113034080311CF480938E0102C010928E01809142
S11303508E01805C80640E942901089560910001EF
S113036070E080E090E00E94FC049B01AC0160E03E
S113037070E080E792E40E94540420E030E044EF0F
S113038052E40E948A050E94C60470933602609368
S1130390350214BC84E085BD81E080936E0008952D
S11303A0E82FF0E090E5899FB0011124EE0FFF1FC4
S11303B0EF5FFE4F40E550E0808191810E94F70598
S11303C008950F931F93CF9380918D010E94D001C4
S11303D000E010E0C0E061E08C2F0E947601E09123
S11303E08D01F0E0EE0FFF1FEF5FFE4F0190F081F3
S11303F0E02DE00FF11F80810E944901CF5F0B5F68
S11304001F4FC03141F7CF911F910F910895E82FED
S1130410F0E090E5899FB0011124EE0FFF1FEF5F1C
S1130420FE4F40E550E0808191810E9407060895C7
S1130430CF93DF93809192018F5F883018F480937B
S1130440920102C01092920180E10E94290184E18C
S11304500E9429018091920190E0FC01EE0FFF1FA0
S1130460EE0FFF1F8E0F9F1FFC01EC59FE4F808182
S11304700E94490180E10E942901A0918D01B0E010
S113048080918E01082E000C990B9C01220F331FC2
S1130490220F331F820F931FE0919201F0E0AA0F05
S11304A0BB1FAF5FBE4FCD91DC911197C80FD91F11
S11304B09F01220F331F220F331FE20FF31FEC594A
S11304C0FE4F418152816381748149835A836B83D6
S11304D07C832D913C91D901A80FB91F20812C93C5
S11304E080918D010E940702DF91CF91089584B11C
S11304F08C6184B925982D9A85B1837E85B92A9A11
S11305000895F8940E9459000E94F0000E94250466
S113051078940E949300F8940E94F00087E591E09B
S11305200E9467012FEF87EA91E6215080409040B6
S1130530E1F700C0000081E00E9429018FE19EE400
S11305400197F1F700C000000E94E10180E40E94DD
S1130550290110928E010E94B2030E94AE010E94F2
S11305607702789408951D9910C02FE788E391E0ED
S1130570215080409040E1F700C0000083B185FB2A
S1130580992790F981E08927089580E00895809162
S11305908C018F5F83301CF480938C0102C0109215
S11305A08C0185B1837E85B935B120918C012E5F94
S11305B081E090E002C0880F991F2A95E2F7832B0F
S11305C085B980918C0180938D0181E00E9429017D
S11305D08FE39CE90197F1F700C000000E94E1015C
S11305E008950E9481020E94B302882359F00E9458
S11305F0C7022FEF85EA9EE0215080409040E1F74A
S113060000C000000E941F04823049F0833061F072
S1130610813049F70E9488010E942204E4CF0E949D
S11306209B010E942204DFCF0E9418020E94220430
S1130630DACF1F920F920FB60F9211242F933F938C
S11306404F935F936F937F938F939F93AF93BF93D6
S1130650EF93FF9380918F01909190010196909375
S1130660900180938F0120918F01309190018091AE
S11306703502909136028217930708F062C01092F7
S1130680900110928F01809191018F5F809391016D
S113069080919101803110F010929101E0918D01CF
S11306A0F0E0EE0FFF1FEF5FFE4F2081318180915C
S11306B0910190E0FC01EE0FFF1FEE0FFF1F8E0F64
S11306C09F1FF901E80FF91F80818032A9F09091F2
S11306D09101892F90E0FC01EE0FFF1FEE0FFF1F29
S11306E08E0F9F1FF901E80FF91F618172818381C9
S11306F094810E94670002C00E945300809191017E
S113070060E00E9476018AE20E9449018091910191
S113071090E0019752F08091910160E081500E9435
S1130720760180E20E94490107C060E08FE00E94E8
S1130730760180E20E94490161E080918E010E946D
S11307407601FF91EF91BF91AF919F918F917F912E
S11307506F915F914F913F912F910F900FBE0F902A
S11307601F90189587B1887F87B988B1876088B949
S11307700895CF93DF9300D0CDB7DEB730990AC088
S113078081E090919301911180E0882319F081E038
S11307908093930196B146B12091930130E081E0BA
S11307A09695917098278427892390E08223932338
S11307B0892B31F082E0809394018093930113C0DC
S11307C086B196B1482F409591FB882780F9842300
S11307D090E028233923232B31F081E08093940186
S11307E082E08093930196B186B1869581708923C6
S11307F049F081E090919301923009F080E08111F9
S113080010929301329916C01A82198289819A81B1
S11308108F3F9F4050F489819A8101969A838983FE
S113082089819A818F3F9F40B0F3329903C083E05E
S1130830809394010F900F90DF91CF910895809150
S113084094010895109294010895E1EBF0E0808101
S113085086608083E0E7F0E0808181608083089592
S11308601F920F920FB60F9211242F933F934F9321
S11308705F936F937F938F939F93AF93BF93EF9304
S1130880FF930E94B903FF91EF91BF91AF919F91A4
S11308908F917F916F915F914F913F912F910F9025
S11308A00FBE0F901F9018950E9468040C94500579
S11308B00E94490558F00E94420540F029F45F3F28
S11308C029F00C94390551110C9484050C943F05BE
S11308D00E94610568F39923B1F3552391F3951BA5
S11308E0550BBB27AA2762177307840738F09F5F4D
S11308F05F4F220F331F441FAA1FA9F335D00E2EBA
S11309003AF0E0E832D091505040E695001CCAF726
S11309102BD0FE2F29D0660F771F881FBB1F2617E9
S113092037074807AB07B0E809F0BB0B802DBF01C0
S1130930FF2793585F4F3AF09E3F510578F00C948F
S113094039050C9484055F3FE4F3983ED4F386950F
S113095077956795B795F7959F5FC9F7880F911DB0
S11309609695879597F90895E1E0660F771F881F9C
S1130970BB1F621773078407BA0720F0621B730B4F
S1130980840BBA0BEE1F88F7E09508950E94CD04FE
S11309906894B1110C94840508950E94690588F047
S11309A09F5798F0B92F9927B751B0F0E1F0660F2F
S11309B0771F881F991F1AF0BA95C9F714C0B13070
S11309C091F00E948305B1E008950C948305672F8C
S11309D0782F8827B85F39F0B93FCCF3869577959F
S11309E06795B395D9F73EF4909580957095619588
S11309F07F4F8F4F9F4F0895E89409C097FB3EF4B3
S1130A0090958095709561957F4F8F4F9F4F992357
S1130A10A9F0F92F96E9BB279395F69587957795D5
S1130A206795B795F111F8CFFAF4BB0F11F460FF95
S1130A301BC06F5F7F4F8F4F9F4F16C0882311F0ED
S1130A4096E911C0772321F09EE8872F762F05C001
S1130A50662371F096E8862F70E060E02AF09A959C
S1130A60660F771F881FDAF7880F9695879597F991
S1130A70089597F99F6780E870E060E008959FEF1C
S1130A8080EC089500240A94161617061806090621
S1130A90089500240A9412161306140605060895F0
S1130AA0092E0394000C11F4882352F0BB0F40F478
S1130AB0BF2B11F460FF04C06F5F7F4F8F4F9F4FB8
S1130AC0089557FD9058440F551F59F05F3F71F03A
S1130AD04795880F97FB991F61F09F3F79F08795A1
S1130AE00895121613061406551FF2CF4695F1DF2A
S1130AF008C0161617061806991FF1CF86957105BA
S1130B00610508940895E894BB2766277727CB01ED
S1130B1097F908950E949D050C9450050E94420582
S1130B2038F00E94490520F0952311F00C94390502
S1130B300C943F0511240C9484050E94610570F304
S1130B40959FC1F3950F50E0551F629FF001729F6E
S1130B50BB27F00DB11D639FAA27F00DB11DAA1F7D
S1130B60649F6627B00DA11D661F829F2227B00DCA
S1130B70A11D621F739FB00DA11D621F839FA00D55
S1130B80611D221F749F3327A00D611D231F849FA5
S1130B90600D211D822F762F6A2F11249F575040FC
S1130BA09AF0F1F088234AF0EE0FFF1FBB1F661F77
S1130BB0771F881F91505040A9F79E3F510580F040
S1130BC00C9439050C9484055F3FE4F3983ED4F308
S1130BD0869577956795B795F795E7959F5FC1F7E4
S1130BE0FE2B880F911D9695879597F90895DC0142
S1130BF0CB01FC01F999FECF06C0F2BDE1BDF89A24
S1130C00319600B40D9241505040B8F70895DC017C
S1130C10A40FB51F4150504048F0CB01840F951FDD
S1130C202E910E94180641505040D0F70895262F67
S1130C30F999FECF92BD81BDF89A019700B40216CE
S1130C4039F01FBA20BD0FB6F894FA9AF99A0FBE7C
S1090C500895F894FFCFA3
S1130C56B495010701E50120000000002000000012
S1130C66002000000000200000000020000000001A
S1130C7620000000002000000000200000000020EA
S1130C8600000000200000000020000000002000FA
S1130C9600000020000000002000000000200000EA
S1130CA6000020000000004A696D204D61727368DF
S1130CB6616C6C00200000000062A4F0764363A41B
S1130CC6D08243647BD4924365A4D0A44366719DC9
S10F0CD6AE43670000C443610000DC432F
S9030000FC
